:020000040800F2
:100000008806002029020008BD030008B503000887
:10001000B9030008D9020008110700080000000019
:10002000000000000000000000000000E9040008DB
:10003000DD02000800000000BF0300089D05000865
:10004000430200084302000843020008430200087C
:10005000430200084302000843020008430200086C
:10006000430200084302000843020008430200085C
:10007000430200084302000843020008430200084C
:10008000430200084302000843020008430200083C
:10009000430200084302000843020008430200082C
:1000A000430200084302000843020008430200081C
:1000B000430200084302000843020008430200080C
:1000C00043020008430200084302000843020008FC
:1000D00043020008430200084302000843020008EC
:1000E00043020008430200084302000843020008DC
:1000F00043020008430200084302000843020008CC
:1001000043020008430200084302000843020008BB
:1001100043020008430200084302000843020008AB
:10012000430200084302000843020008430200089B
:10013000430200084302000843020008430200088B
:10014000430200084302000843020008430200087B
:10015000430200084302000843020008430200086B
:10016000430200084302000843020008430200085B
:10017000430200084302000843020008430200084B
:10018000430200084302000800F002F800F03CF8C7
:100190000AA090E8000C82448344AAF10107DA45E2
:1001A00001D100F031F8AFF2090EBAE80F0013F0F8
:1001B000010F18BFFB1A43F001031847480800005D
:1001C00068080000103A24BF78C878C1FAD85207EE
:1001D00024BF30C830C144BF04680C6070470000C1
:1001E0000023002400250026103A28BF78C1FBD840
:1001F000520728BF30C148BF0B6070471FB500F0E1
:10020000FBFB1FBD10B510BD00F033F81146FFF722
:10021000F5FF00F0DFFA00F051F803B4FFF7F2FF4A
:1002200003BC00F077FA00000948804709480047FE
:10023000FEE7FEE7FEE7FEE7FEE7FEE7FEE7FEE796
:10024000FEE7FEE704480549054A064B70470000F3
:10025000A105000889010008880000208806002008
:10026000880200208802002070477047704770475E
:100270007047754600F02CF8AE46050069465346B7
:1002800020F00700854618B020B5FFF7DBFFBDE87A
:1002900020404FF000064FF000074FF000084FF0ED
:1002A000000B21F00701AC46ACE8C009ACE8C0097E
:1002B000ACE8C009ACE8C0098D46704710B50446EB
:1002C000AFF300802046BDE81040FFF7A6BF000056
:1002D000004870472400002000BFFEE77047F0B5DB
:1002E0000A4600210023002400BF3DE0012505FA55
:1002F00001F3156805EA03049C4234D105684F00F8
:100300000326BE40B543056015794E00B54006682A
:10031000354305601579012D02D01579022D16D1CE
:1003200085684F000326BE40B543856055794E0071
:10033000B540866835438560456801268E40B543E3
:100340004560456896798E40B6B235434560C568CC
:100350004F000326BE40B543C560D5794E00B54079
:10036000C6683543C560491C1029BFD3F0BDF0B540
:10037000002300244D07ED0E02FA05F3CE1000F124
:10038000200555F826504E07F70E0F26BE40B54300
:10039000CF1000F1200646F82750CE1000F12005BE
:1003A00055F8265045EA0304CE1000F1200545F823
:1003B0002640F0BD00BFFEE700BFFEE77047704774
:1003C00029B1064A12680243044B1A6004E0034A4A
:1003D00012688243014B1A607047000030380240B7
:1003E00029B1064A12680243044B1A6004E0034A2A
:1003F00012688243014B1A60704700004038024087
:10040000F0B5002100220024022500260223324FED
:100410003F6807F00C0121B1042905D0082937D124
:1004200005E02E4F076036E02D4F076033E02A4F7E
:100430003F1F3F68C7F38056274F3F1F3F6807F0B5
:100440003F036EB1264FB7FBF3F7DFF88CC0ACF17A
:10045000040CDCF800C0CCF3881C07FB0CF40CE0A7
:100460001E4FB7FBF3F7DFF870C0ACF1040CDCF8FB
:1004700000C0CCF3881C07FB0CF4174F3F1F3F68EC
:10048000C7F301477F1C7D00B4FBF5F7076002E06E
:10049000124F076000BF00BF0F4F3F6807F0F00129
:1004A0000909104F7A5C0768D74047600A4F3F68D8
:1004B00007F4E051890A0B4F7A5C4768D7408760A0
:1004C000054F3F6807F46041490B064F7A5C476867
:1004D000D740C760F0BD0000083802400024F40097
:1004E00000127A0000000020704700000CB50020C8
:1004F0000190009001202549086000BF2348006852
:1005000000F00200009000980028F7D01F48006813
:1005100000F0020010B10120009001E000200090E6
:100520000098012831D100071849403108604FF484
:1005300040401749086000201449083108600860ED
:10054000881408601348091F08608805091F08609F
:1005500000BF0E48006800F000700028F9D040F29B
:1005600002700D49086009480830006820F0030057
:100570000649083108600220086000BF03480830BF
:10058000006800F00C000828F8D10CBD00380240CB
:100590000070004010540107003C0240704700000A
:1005A00010B51548006840F47000134908601348FE
:1005B000006840F001001149086000200F4908312F
:1005C00008600E4800680E4908400C4908600D4854
:1005D000091D0860081F006820F48020091F0860BA
:1005E000002006490C310860FFF780FF4FF00060E3
:1005F00001498039086010BD88ED00E000380240F4
:10060000FFFFF6FE1030002421B1828942F400522F
:10061000828104E082894DF6FF731A40828170471F
:100620002DE9FF4705460E460024A14600BFA0461F
:10063000B08900B100BF2C8A24F44054F0880443F0
:100640002C82AC8941F20C608443B0883189084324
:10065000718908430443AC81AC8A24F44074B089A6
:100660000443AC826846FFF7CBFE2048854202D0A7
:100670001F48854202D1DDF80C9001E0DDF80890BA
:10068000A88900F4004040B109EBC90000EB091053
:1006900031684900B0FBF1F707E009EBC90000EB56
:1006A000091031688900B0FBF1F76420B7FBF0F066
:1006B00004012009642101FB1078A88900F400409E
:1006C00040B1322000EBC800B0FBF1F000F00700B1
:1006D000044308E0322000EB08106421B0FBF1F085
:1006E00000F00F0004432C81BDE8FF87001001409B
:1006F0000014014000BF0549098801F040010029AC
:10070000F9D00249091D08807047000000440040EC
:1007100000BFFEE700BF7047254AD2ED000AF8EEA1
:10072000E00A60EE200AFDEEE00A10EE901A19E0F1
:100730006FF07F424FF0E0235A6100229A611A461F
:10074000126942F001021A6100BF4FF0E022106905
:1007500000F001021AB100F48032002AF5D06FF0E7
:100760007F42891AB1F1807FE2DA4FF0E0225161D5
:1007700000224FF0E0239A611A46126942F001020A
:100780001A6100BF4FF0E022106900F001021AB1B7
:1007900000F48032002AF5D04FF0E022126922F0F6
:1007A00001024FF0E0231A6100229A6170470000B5
:1007B000200000204FF0E021096941F004014FF0D2
:1007C000E02211614FF47A714143014A1160704790
:1007D000200000204FF4165000F0CCF85420FFF712
:1007E000E9FF07E004A107A000F012F89FED070A57
:1007F000FFF792FFF6E7000068656C6C6F20776F7B
:10080000726C640025730D0A0000000000007A4439
:100810000FB478B506A8009052E00A2C40D00D2CF9
:1008200042D0252C44D10598401C05900678642EB2
:100830000AD004DC252E2DD0632E2FD11CE0732E80
:1008400022D0782E2AD110E0009820C80090002DE8
:1008500003DB284600F03EF806E02D20FFF74AFFB4
:10086000691EC84300F036F818E0009820C80090D0
:10087000284600F051F811E0009911F8042BD0B28D
:100880000091FFF737FF09E0009901C9009100F0DE
:1008900065F803E02520FFF72DFF00BF00BF0BE048
:1008A0000A20FFF727FF07E00D20FFF723FF03E0F3
:1008B0002046FFF71FFF00BF00BF0598401C0590B2
:1008C00005980478002CA8D10020009078BC5DF831
:1008D00014FB00001EB5024609240DE00A2092FB1D
:1008E000F0F100FB11200B49085C0DF804000A2010
:1008F00092FBF0F2601EC4B2002AEFD1601CC3B2BA
:1009000005E01DF80300FFF7F5FE581CC3B20A2BE3
:10091000F7DB1EBD100000201CB5024607230BE0CC
:1009200002F00F000C49085C0DF803001211581E6C
:10093000C3B2FF2B00D101E0002AF1D100BF581C47
:10094000C4B205E01DF80400FFF7D4FE601CC4B279
:10095000082CF7DB1CBD00001000002000B502468B
:1009600003E01078FFF7C6FE521C10780028F8D17B
:1009700000BD000010B586B0044601210846FFF70F
:100980001FFD01214804FFF72BFD07220221184813
:10099000FFF7EDFC072203211548FFF7E8FC0C20C8
:1009A000049002208DF814008DF8150000208DF8B9
:1009B000160001208DF8170004A90D48FFF78FFCE1
:1009C00000940020ADF80400ADF80600ADF8080072
:1009D000ADF80C000C20ADF80A0069460548FFF799
:1009E0001FFE01210348FFF70FFE06B010BD0000F7
:1009F00000000240004400404FF04070E1EE100A59
:100A000070470000240A00080000002024000000B5
:100A1000C4010008480A0008240000206406000001
:100A2000E0010008000000000102030401020304C9
:100A30000607080930313233343536373839414208
:080A400043444546000000009C
:040000050800018965
:00000001FF
